{
  "_format": "hh-sol-artifact-1",
  "contractName": "EventTicketing",
  "sourceName": "contracts/EventTicketing.sol",
  "abi": [
    {
      "anonymous": false,
      "inputs": [
        {
          "indexed": false,
          "internalType": "uint256",
          "name": "id",
          "type": "uint256"
        },
        {
          "indexed": false,
          "internalType": "string",
          "name": "name",
          "type": "string"
        },
        {
          "indexed": false,
          "internalType": "uint256",
          "name": "ticketPrice",
          "type": "uint256"
        },
        {
          "indexed": false,
          "internalType": "uint256",
          "name": "totalTickets",
          "type": "uint256"
        },
        {
          "indexed": false,
          "internalType": "address",
          "name": "organizer",
          "type": "address"
        }
      ],
      "name": "EventCreated",
      "type": "event"
    },
    {
      "anonymous": false,
      "inputs": [
        {
          "indexed": false,
          "internalType": "address",
          "name": "buyer",
          "type": "address"
        },
        {
          "indexed": false,
          "internalType": "uint256",
          "name": "eventId",
          "type": "uint256"
        },
        {
          "indexed": false,
          "internalType": "string",
          "name": "eventName",
          "type": "string"
        },
        {
          "indexed": false,
          "internalType": "uint256",
          "name": "ticketPrice",
          "type": "uint256"
        }
      ],
      "name": "TicketBought",
      "type": "event"
    },
    {
      "inputs": [
        {
          "internalType": "uint256",
          "name": "eventId",
          "type": "uint256"
        }
      ],
      "name": "buyTicket",
      "outputs": [],
      "stateMutability": "payable",
      "type": "function"
    },
    {
      "inputs": [
        {
          "internalType": "string",
          "name": "name",
          "type": "string"
        },
        {
          "internalType": "uint256",
          "name": "ticketPrice",
          "type": "uint256"
        },
        {
          "internalType": "uint256",
          "name": "totalTickets",
          "type": "uint256"
        }
      ],
      "name": "createEvent",
      "outputs": [],
      "stateMutability": "nonpayable",
      "type": "function"
    },
    {
      "inputs": [
        {
          "internalType": "uint256",
          "name": "",
          "type": "uint256"
        }
      ],
      "name": "eventIds",
      "outputs": [
        {
          "internalType": "uint256",
          "name": "",
          "type": "uint256"
        }
      ],
      "stateMutability": "view",
      "type": "function"
    },
    {
      "inputs": [
        {
          "internalType": "uint256",
          "name": "",
          "type": "uint256"
        }
      ],
      "name": "events",
      "outputs": [
        {
          "internalType": "uint256",
          "name": "id",
          "type": "uint256"
        },
        {
          "internalType": "string",
          "name": "name",
          "type": "string"
        },
        {
          "internalType": "uint256",
          "name": "ticketPrice",
          "type": "uint256"
        },
        {
          "internalType": "uint256",
          "name": "totalTickets",
          "type": "uint256"
        },
        {
          "internalType": "uint256",
          "name": "ticketsSold",
          "type": "uint256"
        },
        {
          "internalType": "address",
          "name": "organizer",
          "type": "address"
        },
        {
          "internalType": "bool",
          "name": "isSaleActive",
          "type": "bool"
        }
      ],
      "stateMutability": "view",
      "type": "function"
    },
    {
      "inputs": [],
      "name": "getAllEvents",
      "outputs": [
        {
          "internalType": "uint256[]",
          "name": "",
          "type": "uint256[]"
        },
        {
          "internalType": "string[]",
          "name": "",
          "type": "string[]"
        },
        {
          "internalType": "uint256[]",
          "name": "",
          "type": "uint256[]"
        },
        {
          "internalType": "uint256[]",
          "name": "",
          "type": "uint256[]"
        },
        {
          "internalType": "uint256[]",
          "name": "",
          "type": "uint256[]"
        },
        {
          "internalType": "address[]",
          "name": "",
          "type": "address[]"
        }
      ],
      "stateMutability": "view",
      "type": "function"
    },
    {
      "inputs": [],
      "name": "getUserTickets",
      "outputs": [
        {
          "components": [
            {
              "internalType": "uint256",
              "name": "eventId",
              "type": "uint256"
            },
            {
              "internalType": "string",
              "name": "eventName",
              "type": "string"
            },
            {
              "internalType": "uint256",
              "name": "ticketPrice",
              "type": "uint256"
            }
          ],
          "internalType": "struct EventTicketing.TicketPurchase[]",
          "name": "",
          "type": "tuple[]"
        }
      ],
      "stateMutability": "view",
      "type": "function"
    },
    {
      "inputs": [
        {
          "internalType": "address",
          "name": "",
          "type": "address"
        },
        {
          "internalType": "uint256",
          "name": "",
          "type": "uint256"
        }
      ],
      "name": "userPurchases",
      "outputs": [
        {
          "internalType": "uint256",
          "name": "eventId",
          "type": "uint256"
        },
        {
          "internalType": "string",
          "name": "eventName",
          "type": "string"
        },
        {
          "internalType": "uint256",
          "name": "ticketPrice",
          "type": "uint256"
        }
      ],
      "stateMutability": "view",
      "type": "function"
    }
  ],
  "bytecode": "0x6080604052348015600f57600080fd5b50611cf68061001f6000396000f3fe6080604052600436106100705760003560e01c8063998f6ac01161004e578063998f6ac0146100ff5780639e9580f61461013c578063c27a500d14610165578063cf2c03341461019557610070565b8063093c69ae146100755780630b791430146100a057806367dd74ca146100e3575b600080fd5b34801561008157600080fd5b5061008a6101d4565b6040516100979190610f85565b60405180910390f35b3480156100ac57600080fd5b506100c760048036038101906100c29190610fe7565b610316565b6040516100da97969594939291906110c9565b60405180910390f35b6100fd60048036038101906100f89190610fe7565b61040d565b005b34801561010b57600080fd5b5061012660048036038101906101219190610fe7565b610756565b604051610133919061113f565b60405180910390f35b34801561014857600080fd5b50610163600480360381019061015e919061128f565b61077a565b005b34801561017157600080fd5b5061017a6108f9565b60405161018c9695949392919061152d565b60405180910390f35b3480156101a157600080fd5b506101bc60048036038101906101b791906115e4565b610cfb565b6040516101cb93929190611624565b60405180910390f35b6060600160003373ffffffffffffffffffffffffffffffffffffffff1673ffffffffffffffffffffffffffffffffffffffff168152602001908152602001600020805480602002602001604051908101604052809291908181526020016000905b8282101561030d57838290600052602060002090600302016040518060600160405290816000820154815260200160018201805461027290611691565b80601f016020809104026020016040519081016040528092919081815260200182805461029e90611691565b80156102eb5780601f106102c0576101008083540402835291602001916102eb565b820191906000526020600020905b8154815290600101906020018083116102ce57829003601f168201915b5050505050815260200160028201548152505081526020019060010190610235565b50505050905090565b600060205280600052604060002060009150905080600001549080600101805461033f90611691565b80601f016020809104026020016040519081016040528092919081815260200182805461036b90611691565b80156103b85780601f1061038d576101008083540402835291602001916103b8565b820191906000526020600020905b81548152906001019060200180831161039b57829003601f168201915b5050505050908060020154908060030154908060040154908060050160009054906101000a900473ffffffffffffffffffffffffffffffffffffffff16908060050160149054906101000a900460ff16905087565b6000806000838152602001908152602001600020905081816000015414610469576040517f08c379a00000000000000000000000000000000000000000000000000000000081526004016104609061170e565b60405180910390fd5b8060050160149054906101000a900460ff166104ba576040517f08c379a00000000000000000000000000000000000000000000000000000000081526004016104b19061177a565b60405180910390fd5b80600201543414610500576040517f08c379a00000000000000000000000000000000000000000000000000000000081526004016104f7906117e6565b60405180910390fd5b806003015481600401541061054a576040517f08c379a000000000000000000000000000000000000000000000000000000000815260040161054190611852565b60405180910390fd5b600160003373ffffffffffffffffffffffffffffffffffffffff1673ffffffffffffffffffffffffffffffffffffffff16815260200190815260200160002060405180606001604052808481526020018360010180546105a990611691565b80601f01602080910402602001604051908101604052809291908181526020018280546105d590611691565b80156106225780601f106105f757610100808354040283529160200191610622565b820191906000526020600020905b81548152906001019060200180831161060557829003601f168201915b505050505081526020018360020154815250908060018154018082558091505060019003906000526020600020906003020160009091909190915060008201518160000155602082015181600101908161067c9190611a1e565b506040820151816002015550507fb6ca42e129750056ddceca36749edb97daf77dafd6379382b211c40ae1a7abde33838360010184600201546040516106c59493929190611b74565b60405180910390a18060040160008154809291906106e290611bef565b91905055508060050160009054906101000a900473ffffffffffffffffffffffffffffffffffffffff1673ffffffffffffffffffffffffffffffffffffffff166108fc349081150290604051600060405180830381858888f19350505050158015610751573d6000803e3d6000fd5b505050565b6002818154811061076657600080fd5b906000526020600020016000915090505481565b600060028054905090506040518060e00160405280828152602001858152602001848152602001838152602001600081526020013373ffffffffffffffffffffffffffffffffffffffff168152602001600115158152506000808381526020019081526020016000206000820151816000015560208201518160010190816108029190611a1e565b5060408201518160020155606082015181600301556080820151816004015560a08201518160050160006101000a81548173ffffffffffffffffffffffffffffffffffffffff021916908373ffffffffffffffffffffffffffffffffffffffff16021790555060c08201518160050160146101000a81548160ff02191690831515021790555090505060028190806001815401808255809150506001900390600052602060002001600090919091909150557f818cdd1d6860d493731be2106680d34811f56c9ed9d66dbf56a7c2dcc59c9be581858585336040516108eb959493929190611c37565b60405180910390a150505050565b6060806060806060806000600280549050905060008167ffffffffffffffff81111561092857610927611164565b5b6040519080825280602002602001820160405280156109565781602001602082028036833780820191505090505b50905060008267ffffffffffffffff81111561097557610974611164565b5b6040519080825280602002602001820160405280156109a857816020015b60608152602001906001900390816109935790505b50905060008367ffffffffffffffff8111156109c7576109c6611164565b5b6040519080825280602002602001820160405280156109f55781602001602082028036833780820191505090505b50905060008467ffffffffffffffff811115610a1457610a13611164565b5b604051908082528060200260200182016040528015610a425781602001602082028036833780820191505090505b50905060008567ffffffffffffffff811115610a6157610a60611164565b5b604051908082528060200260200182016040528015610a8f5781602001602082028036833780820191505090505b50905060008667ffffffffffffffff811115610aae57610aad611164565b5b604051908082528060200260200182016040528015610adc5781602001602082028036833780820191505090505b50905060005b87811015610cd957600080600060028481548110610b0357610b02611c91565b5b9060005260206000200154815260200190815260200160002090508060000154888381518110610b3657610b35611c91565b5b602002602001018181525050806001018054610b5190611691565b80601f0160208091040260200160405190810160405280929190818152602001828054610b7d90611691565b8015610bca5780601f10610b9f57610100808354040283529160200191610bca565b820191906000526020600020905b815481529060010190602001808311610bad57829003601f168201915b5050505050878381518110610be257610be1611c91565b5b60200260200101819052508060020154868381518110610c0557610c04611c91565b5b6020026020010181815250508060030154858381518110610c2957610c28611c91565b5b6020026020010181815250508060040154848381518110610c4d57610c4c611c91565b5b6020026020010181815250508060050160009054906101000a900473ffffffffffffffffffffffffffffffffffffffff16838381518110610c9157610c90611c91565b5b602002602001019073ffffffffffffffffffffffffffffffffffffffff16908173ffffffffffffffffffffffffffffffffffffffff1681525050508080600101915050610ae2565b508585858585859c509c509c509c509c509c5050505050505050909192939495565b60016020528160005260406000208181548110610d1757600080fd5b906000526020600020906003020160009150915050806000015490806001018054610d4190611691565b80601f0160208091040260200160405190810160405280929190818152602001828054610d6d90611691565b8015610dba5780601f10610d8f57610100808354040283529160200191610dba565b820191906000526020600020905b815481529060010190602001808311610d9d57829003601f168201915b5050505050908060020154905083565b600081519050919050565b600082825260208201905092915050565b6000819050602082019050919050565b6000819050919050565b610e0981610df6565b82525050565b600081519050919050565b600082825260208201905092915050565b60005b83811015610e49578082015181840152602081019050610e2e565b60008484015250505050565b6000601f19601f8301169050919050565b6000610e7182610e0f565b610e7b8185610e1a565b9350610e8b818560208601610e2b565b610e9481610e55565b840191505092915050565b6000606083016000830151610eb76000860182610e00565b5060208301518482036020860152610ecf8282610e66565b9150506040830151610ee46040860182610e00565b508091505092915050565b6000610efb8383610e9f565b905092915050565b6000602082019050919050565b6000610f1b82610dca565b610f258185610dd5565b935083602082028501610f3785610de6565b8060005b85811015610f735784840389528151610f548582610eef565b9450610f5f83610f03565b925060208a01995050600181019050610f3b565b50829750879550505050505092915050565b60006020820190508181036000830152610f9f8184610f10565b905092915050565b6000604051905090565b600080fd5b600080fd5b610fc481610df6565b8114610fcf57600080fd5b50565b600081359050610fe181610fbb565b92915050565b600060208284031215610ffd57610ffc610fb1565b5b600061100b84828501610fd2565b91505092915050565b61101d81610df6565b82525050565b600082825260208201905092915050565b600061103f82610e0f565b6110498185611023565b9350611059818560208601610e2b565b61106281610e55565b840191505092915050565b600073ffffffffffffffffffffffffffffffffffffffff82169050919050565b60006110988261106d565b9050919050565b6110a88161108d565b82525050565b60008115159050919050565b6110c3816110ae565b82525050565b600060e0820190506110de600083018a611014565b81810360208301526110f08189611034565b90506110ff6040830188611014565b61110c6060830187611014565b6111196080830186611014565b61112660a083018561109f565b61113360c08301846110ba565b98975050505050505050565b60006020820190506111546000830184611014565b92915050565b600080fd5b600080fd5b7f4e487b7100000000000000000000000000000000000000000000000000000000600052604160045260246000fd5b61119c82610e55565b810181811067ffffffffffffffff821117156111bb576111ba611164565b5b80604052505050565b60006111ce610fa7565b90506111da8282611193565b919050565b600067ffffffffffffffff8211156111fa576111f9611164565b5b61120382610e55565b9050602081019050919050565b82818337600083830152505050565b600061123261122d846111df565b6111c4565b90508281526020810184848401111561124e5761124d61115f565b5b611259848285611210565b509392505050565b600082601f8301126112765761127561115a565b5b813561128684826020860161121f565b91505092915050565b6000806000606084860312156112a8576112a7610fb1565b5b600084013567ffffffffffffffff8111156112c6576112c5610fb6565b5b6112d286828701611261565b93505060206112e386828701610fd2565b92505060406112f486828701610fd2565b9150509250925092565b600081519050919050565b600082825260208201905092915050565b6000819050602082019050919050565b60006113368383610e00565b60208301905092915050565b6000602082019050919050565b600061135a826112fe565b6113648185611309565b935061136f8361131a565b8060005b838110156113a0578151611387888261132a565b975061139283611342565b925050600181019050611373565b5085935050505092915050565b600081519050919050565b600082825260208201905092915050565b6000819050602082019050919050565b60006113e58383610e66565b905092915050565b6000602082019050919050565b6000611405826113ad565b61140f81856113b8565b935083602082028501611421856113c9565b8060005b8581101561145d578484038952815161143e85826113d9565b9450611449836113ed565b925060208a01995050600181019050611425565b50829750879550505050505092915050565b600081519050919050565b600082825260208201905092915050565b6000819050602082019050919050565b6114a48161108d565b82525050565b60006114b6838361149b565b60208301905092915050565b6000602082019050919050565b60006114da8261146f565b6114e4818561147a565b93506114ef8361148b565b8060005b8381101561152057815161150788826114aa565b9750611512836114c2565b9250506001810190506114f3565b5085935050505092915050565b600060c0820190508181036000830152611547818961134f565b9050818103602083015261155b81886113fa565b9050818103604083015261156f818761134f565b90508181036060830152611583818661134f565b90508181036080830152611597818561134f565b905081810360a08301526115ab81846114cf565b9050979650505050505050565b6115c18161108d565b81146115cc57600080fd5b50565b6000813590506115de816115b8565b92915050565b600080604083850312156115fb576115fa610fb1565b5b6000611609858286016115cf565b925050602061161a85828601610fd2565b9150509250929050565b60006060820190506116396000830186611014565b818103602083015261164b8185611034565b905061165a6040830184611014565b949350505050565b7f4e487b7100000000000000000000000000000000000000000000000000000000600052602260045260246000fd5b600060028204905060018216806116a957607f821691505b6020821081036116bc576116bb611662565b5b50919050565b7f4576656e7420646f6573206e6f74206578697374000000000000000000000000600082015250565b60006116f8601483611023565b9150611703826116c2565b602082019050919050565b60006020820190508181036000830152611727816116eb565b9050919050565b7f5469636b65742073616c65206973206e6f742061637469766500000000000000600082015250565b6000611764601983611023565b915061176f8261172e565b602082019050919050565b6000602082019050818103600083015261179381611757565b9050919050565b7f496e636f7272656374207469636b657420707269636500000000000000000000600082015250565b60006117d0601683611023565b91506117db8261179a565b602082019050919050565b600060208201905081810360008301526117ff816117c3565b9050919050565b7f4e6f207469636b65747320617661696c61626c65000000000000000000000000600082015250565b600061183c601483611023565b915061184782611806565b602082019050919050565b6000602082019050818103600083015261186b8161182f565b9050919050565b60008190508160005260206000209050919050565b60006020601f8301049050919050565b600082821b905092915050565b6000600883026118d47fffffffffffffffffffffffffffffffffffffffffffffffffffffffffffffffff82611897565b6118de8683611897565b95508019841693508086168417925050509392505050565b6000819050919050565b600061191b61191661191184610df6565b6118f6565b610df6565b9050919050565b6000819050919050565b61193583611900565b61194961194182611922565b8484546118a4565b825550505050565b600090565b61195e611951565b61196981848461192c565b505050565b5b8181101561198d57611982600082611956565b60018101905061196f565b5050565b601f8211156119d2576119a381611872565b6119ac84611887565b810160208510156119bb578190505b6119cf6119c785611887565b83018261196e565b50505b505050565b600082821c905092915050565b60006119f5600019846008026119d7565b1980831691505092915050565b6000611a0e83836119e4565b9150826002028217905092915050565b611a2782610e0f565b67ffffffffffffffff811115611a4057611a3f611164565b5b611a4a8254611691565b611a55828285611991565b600060209050601f831160018114611a885760008415611a76578287015190505b611a808582611a02565b865550611ae8565b601f198416611a9686611872565b60005b82811015611abe57848901518255600182019150602085019450602081019050611a99565b86831015611adb5784890151611ad7601f8916826119e4565b8355505b6001600288020188555050505b505050505050565b60008154611afd81611691565b611b078186611023565b94506001821660008114611b225760018114611b3857611b6b565b60ff198316865281151560200286019350611b6b565b611b4185611872565b60005b83811015611b6357815481890152600182019150602081019050611b44565b808801955050505b50505092915050565b6000608082019050611b89600083018761109f565b611b966020830186611014565b8181036040830152611ba88185611af0565b9050611bb76060830184611014565b95945050505050565b7f4e487b7100000000000000000000000000000000000000000000000000000000600052601160045260246000fd5b6000611bfa82610df6565b91507fffffffffffffffffffffffffffffffffffffffffffffffffffffffffffffffff8203611c2c57611c2b611bc0565b5b600182019050919050565b600060a082019050611c4c6000830188611014565b8181036020830152611c5e8187611034565b9050611c6d6040830186611014565b611c7a6060830185611014565b611c87608083018461109f565b9695505050505050565b7f4e487b7100000000000000000000000000000000000000000000000000000000600052603260045260246000fdfea2646970667358221220ef7194d0e274dac7d9ad3dcbba96334de10de5d26e1bcabf3d4bbbe422a6955764736f6c634300081c0033",
  "linkReferences": {},
  "deployedLinkReferences": {}
}